{
  "_format": "hh-sol-artifact-1",
  "contractName": "MedicalRecords",
  "sourceName": "contracts/MedicalRecords.sol",
  "abi": [
    {
      "inputs": [
        {
          "internalType": "bytes32",
          "name": "recordId",
          "type": "bytes32"
        },
        {
          "internalType": "string",
          "name": "_chatHash",
          "type": "string"
        },
        {
          "internalType": "string",
          "name": "_recordHash",
          "type": "string"
        }
      ],
      "name": "addRecord",
      "outputs": [],
      "stateMutability": "nonpayable",
      "type": "function"
    },
    {
      "inputs": [
        {
          "internalType": "address",
          "name": "patient",
          "type": "address"
        },
        {
          "internalType": "bytes32",
          "name": "recordId",
          "type": "bytes32"
        }
      ],
      "name": "getRecord",
      "outputs": [
        {
          "internalType": "string",
          "name": "",
          "type": "string"
        },
        {
          "internalType": "string",
          "name": "",
          "type": "string"
        },
        {
          "internalType": "uint256",
          "name": "",
          "type": "uint256"
        },
        {
          "internalType": "bool",
          "name": "",
          "type": "bool"
        }
      ],
      "stateMutability": "view",
      "type": "function"
    },
    {
      "inputs": [
        {
          "internalType": "address",
          "name": "",
          "type": "address"
        },
        {
          "internalType": "uint256",
          "name": "",
          "type": "uint256"
        }
      ],
      "name": "patientRecordIds",
      "outputs": [
        {
          "internalType": "bytes32",
          "name": "",
          "type": "bytes32"
        }
      ],
      "stateMutability": "view",
      "type": "function"
    },
    {
      "inputs": [
        {
          "internalType": "address",
          "name": "",
          "type": "address"
        },
        {
          "internalType": "bytes32",
          "name": "",
          "type": "bytes32"
        }
      ],
      "name": "patientRecords",
      "outputs": [
        {
          "internalType": "string",
          "name": "chatHash",
          "type": "string"
        },
        {
          "internalType": "string",
          "name": "recordHash",
          "type": "string"
        },
        {
          "internalType": "uint256",
          "name": "timestamp",
          "type": "uint256"
        },
        {
          "internalType": "bool",
          "name": "exists",
          "type": "bool"
        }
      ],
      "stateMutability": "view",
      "type": "function"
    }
  ],
  "bytecode": "0x6080604052348015600f57600080fd5b50610e0d8061001f6000396000f3fe608060405234801561001057600080fd5b506004361061004c5760003560e01c80633aef11b11461005157806347dbd86b146100845780635e2547f2146100b7578063e27929b6146100e7575b600080fd5b61006b600480360381019061006691906106e0565b610103565b60405161007b94939291906107e4565b60405180910390f35b61009e600480360381019061009991906106e0565b6102d6565b6040516100ae94939291906107e4565b60405180910390f35b6100d160048036038101906100cc9190610863565b610430565b6040516100de91906108b2565b60405180910390f35b61010160048036038101906100fc9190610a02565b610461565b005b60608060008060008060008873ffffffffffffffffffffffffffffffffffffffff1673ffffffffffffffffffffffffffffffffffffffff168152602001908152602001600020600087815260200190815260200160002060405180608001604052908160008201805461017590610abc565b80601f01602080910402602001604051908101604052809291908181526020018280546101a190610abc565b80156101ee5780601f106101c3576101008083540402835291602001916101ee565b820191906000526020600020905b8154815290600101906020018083116101d157829003601f168201915b5050505050815260200160018201805461020790610abc565b80601f016020809104026020016040519081016040528092919081815260200182805461023390610abc565b80156102805780601f1061025557610100808354040283529160200191610280565b820191906000526020600020905b81548152906001019060200180831161026357829003601f168201915b50505050508152602001600282015481526020016003820160009054906101000a900460ff1615151515815250509050806000015181602001518260400151836060015194509450945094505092959194509250565b60006020528160005260406000206020528060005260406000206000915091505080600001805461030690610abc565b80601f016020809104026020016040519081016040528092919081815260200182805461033290610abc565b801561037f5780601f106103545761010080835404028352916020019161037f565b820191906000526020600020905b81548152906001019060200180831161036257829003601f168201915b50505050509080600101805461039490610abc565b80601f01602080910402602001604051908101604052809291908181526020018280546103c090610abc565b801561040d5780601f106103e25761010080835404028352916020019161040d565b820191906000526020600020905b8154815290600101906020018083116103f057829003601f168201915b5050505050908060020154908060030160009054906101000a900460ff16905084565b6001602052816000526040600020818154811061044c57600080fd5b90600052602060002001600091509150505481565b6000803373ffffffffffffffffffffffffffffffffffffffff1673ffffffffffffffffffffffffffffffffffffffff168152602001908152602001600020600084815260200190815260200160002060030160009054906101000a900460ff1615610501576040517f08c379a00000000000000000000000000000000000000000000000000000000081526004016104f890610b39565b60405180910390fd5b6040518060800160405280838152602001828152602001428152602001600115158152506000803373ffffffffffffffffffffffffffffffffffffffff1673ffffffffffffffffffffffffffffffffffffffff168152602001908152602001600020600085815260200190815260200160002060008201518160000190816105899190610d05565b50602082015181600101908161059f9190610d05565b506040820151816002015560608201518160030160006101000a81548160ff021916908315150217905550905050600160003373ffffffffffffffffffffffffffffffffffffffff1673ffffffffffffffffffffffffffffffffffffffff168152602001908152602001600020839080600181540180825580915050600190039060005260206000200160009091909190915055505050565b6000604051905090565b600080fd5b600080fd5b600073ffffffffffffffffffffffffffffffffffffffff82169050919050565b60006106778261064c565b9050919050565b6106878161066c565b811461069257600080fd5b50565b6000813590506106a48161067e565b92915050565b6000819050919050565b6106bd816106aa565b81146106c857600080fd5b50565b6000813590506106da816106b4565b92915050565b600080604083850312156106f7576106f6610642565b5b600061070585828601610695565b9250506020610716858286016106cb565b9150509250929050565b600081519050919050565b600082825260208201905092915050565b60005b8381101561075a57808201518184015260208101905061073f565b60008484015250505050565b6000601f19601f8301169050919050565b600061078282610720565b61078c818561072b565b935061079c81856020860161073c565b6107a581610766565b840191505092915050565b6000819050919050565b6107c3816107b0565b82525050565b60008115159050919050565b6107de816107c9565b82525050565b600060808201905081810360008301526107fe8187610777565b905081810360208301526108128186610777565b905061082160408301856107ba565b61082e60608301846107d5565b95945050505050565b610840816107b0565b811461084b57600080fd5b50565b60008135905061085d81610837565b92915050565b6000806040838503121561087a57610879610642565b5b600061088885828601610695565b92505060206108998582860161084e565b9150509250929050565b6108ac816106aa565b82525050565b60006020820190506108c760008301846108a3565b92915050565b600080fd5b600080fd5b7f4e487b7100000000000000000000000000000000000000000000000000000000600052604160045260246000fd5b61090f82610766565b810181811067ffffffffffffffff8211171561092e5761092d6108d7565b5b80604052505050565b6000610941610638565b905061094d8282610906565b919050565b600067ffffffffffffffff82111561096d5761096c6108d7565b5b61097682610766565b9050602081019050919050565b82818337600083830152505050565b60006109a56109a084610952565b610937565b9050828152602081018484840111156109c1576109c06108d2565b5b6109cc848285610983565b509392505050565b600082601f8301126109e9576109e86108cd565b5b81356109f9848260208601610992565b91505092915050565b600080600060608486031215610a1b57610a1a610642565b5b6000610a29868287016106cb565b935050602084013567ffffffffffffffff811115610a4a57610a49610647565b5b610a56868287016109d4565b925050604084013567ffffffffffffffff811115610a7757610a76610647565b5b610a83868287016109d4565b9150509250925092565b7f4e487b7100000000000000000000000000000000000000000000000000000000600052602260045260246000fd5b60006002820490506001821680610ad457607f821691505b602082108103610ae757610ae6610a8d565b5b50919050565b7f5265636f726420616c7265616479206578697374730000000000000000000000600082015250565b6000610b2360158361072b565b9150610b2e82610aed565b602082019050919050565b60006020820190508181036000830152610b5281610b16565b9050919050565b60008190508160005260206000209050919050565b60006020601f8301049050919050565b600082821b905092915050565b600060088302610bbb7fffffffffffffffffffffffffffffffffffffffffffffffffffffffffffffffff82610b7e565b610bc58683610b7e565b95508019841693508086168417925050509392505050565b6000819050919050565b6000610c02610bfd610bf8846107b0565b610bdd565b6107b0565b9050919050565b6000819050919050565b610c1c83610be7565b610c30610c2882610c09565b848454610b8b565b825550505050565b600090565b610c45610c38565b610c50818484610c13565b505050565b5b81811015610c7457610c69600082610c3d565b600181019050610c56565b5050565b601f821115610cb957610c8a81610b59565b610c9384610b6e565b81016020851015610ca2578190505b610cb6610cae85610b6e565b830182610c55565b50505b505050565b600082821c905092915050565b6000610cdc60001984600802610cbe565b1980831691505092915050565b6000610cf58383610ccb565b9150826002028217905092915050565b610d0e82610720565b67ffffffffffffffff811115610d2757610d266108d7565b5b610d318254610abc565b610d3c828285610c78565b600060209050601f831160018114610d6f5760008415610d5d578287015190505b610d678582610ce9565b865550610dcf565b601f198416610d7d86610b59565b60005b82811015610da557848901518255600182019150602085019450602081019050610d80565b86831015610dc25784890151610dbe601f891682610ccb565b8355505b6001600288020188555050505b50505050505056fea2646970667358221220e8cb2ee2c3293b74bca872dc08420273d32eb521b9dec0e01c417054f4f4729664736f6c634300081c0033",
  "linkReferences": {},
  "deployedLinkReferences": {}
}